S014000046435453554D4D455243414D502E73333709
S11300000010002011120000EB6D0000EB6D0000E9
S1130010EB6D0000EB6D0000EB6D0000EB6D00007C
S1130020EB6D0000EB6D0000EB6D0000EB6D00006C
S1130030EB6D0000EB6D0000EB6D0000EB6D00005C
S1130040EB6D0000EB6D0000EB6D0000EB6D00004C
S1130050EB6D0000EB6D0000EB6D0000EB6D00003C
S1130060EB6D0000EB6D0000EB6D0000EB6D00002C
S1130070B9460000EB6D0000EB6D0000B511000007
S1130080C56D0000EB6D0000EB6D0000EB6D000032
S1130090EB6D000085190000EB6D0000EB6D0000B6
S11300A0EB6D00000D1B0000E91A0000EB6D000071
S11300B0EB6D0000EB6D0000EB6D0000EB6D0000DC
S11300C0EB6D0000EB6D0000EB6D0000EB6D0000CC
S11300D0EB6D0000EB6D0000EB6D0000EB6D0000BC
S11300E0EB6D0000EB6D0000EB6D0000EB6D0000AC
S11300F0EB6D0000EB6D0000EB6D0000EB6D00009C
S1130100EB6D0000EB6D0000EB6D0000EB6D00008B
S1130110EB6D0000EB6D0000EB6D0000EB6D00007B
S1130120EB6D0000EB6D0000EB6D0000EB6D00006B
S1130130EB6D0000EB6D0000EB6D0000EB6D00005B
S1130140013800D0FCE770472DE9F04FC76997B03C
S11301508346209E08910C92129355EC104B8DED22
S1130160000B7FB9102005F075FD0246CBF81C008A
S113017020B9A74BEF21A74806F0DAFAC0E90177C6
S11301800760C760DBF81C30196859B15A6801234D
S1130190584693404A608B6005F04AFEDBF81C30F9
S11301A000221A602B1EB7BF23F000430023012254
S11301B00193A8BF3360019F974BB8BF3260BB4324
S11301C019D142F20F73129A1360C7F31303234336
S11301D000F0DB85219B53B9904B21E0904B0393B6
S11301E00833219A1360039817B0BDE8F08F8B4B46
S11301F003930333F5E79DED007B0022002351ECCC
S1130200170B8DED0A7B06F045FD804650B10123A6
S1130210129A1360219B13B1824B219A1360824B73
S11302200393E0E7C7F30A5614AA15A958469DEDAF
S11302300A0B06F085F80290002E76D00B9BA6F2EE
S1130240FF36CDF84C80C3F3130343F07F53DDE94D
S11302500A0143F4401319460022744B04F006FCCF
S113026065A3D3E9002306F0ADFA65A3D3E900231F
S113027004F0FEFB04460D46304604F045FD62A33F
S1130280D3E9002306F09EFA02460B46204629468F
S113029004F0EEFB04460D4606F044FD002207463A
S11302A000232046294606F0FFFC40B1384604F0FE
S11302B02BFD22462B4606F0EDFC00B9013F162F1C
S11302C052D85B4B03EBC703DDE90A01D3E90023F2
S11302D006F0EAFC002849D0013F00231193149B47
S11302E09B1B5A1E4CBFC3F101030023079245BF59
S11302F00693002306930793002F39DB079B10977F
S11303003B44079300230993089B092B66D8052BCC
S1130310C5BF043B002401240893089B023B032B24
S113032067D8DFE803F02D3A3859DDE914631E4439
S113033006F23243202BC9BFC3F14003C3F12003AB
S11303409F4006F21243D8BF04FA03F006F1FF36C9
S1130350C4BF24FA03F347EA030004F0C5FC0122F6
S1130360A1F1F873139276E70123B7E71190B6E78A
S1130370069BDB1B06937B42099300231093C3E780
S113038000230D930C9B002B56DC012399461A463F
S113039004930C920CE00123F3E700230D930C9BD0
S11303A0FB1803F1010904934B46012BB8BF012349
S11303B0DBF81C000021042202F114059D423FD900
S11303C04160584605F0F4FC039000283BD1194BDA
S11303D0024640F2AF11CEE60123DFE701240023F9
S11303E00D9408934FF0FF3300229946049312238F
S11303F0CFE701230D93F5E761436F63A787D23FEE
S1130400B3C8608B288AC63FFB799F501344D33FFF
S1130410D6810000ED8100000000F07FD281000051
S1130420C9810000A6810000A58100000000F83FFA
S1130430E8820000468200000C9B99460493B7E7CB
S113044001315200B8E7DBF81C30B9F10E0F039A02
S11304501A606FD8002C6DD0002F36DD07F00F0224
S1130460A04BF8054FEA271403EBC20393ED007B7E
S11304708DED0E7B17D59C4B04F00F044FF0030851
S1130480D3E90823DDE90A0106F0C6FACDE9000143
S1130490954D5CB9DDE90E23DDE9000106F0BCFAF7
S11304A0CDE900012BE04FF00208F1E7E10709D59F
S11304B008F10108DDE90E01D5E9002306F082F90F
S11304C0CDE90E0164100835E3E700F007817C42B2
S11304D0844B854D4FF0020804F00F02241103EB06
S11304E0C203DDE90A01D3E9002306F06BF9002316
S11304F0CDE90001002C40F0E580002BD0D1119B08
S1130500DDE90045002B00F04C810022774B2046AA
S1130510294606F0C9FB002800F04381B9F1000F19
S113052000F03F81049B002B00F3E480DDE90A34F2
S1130530CDE90034159B002B02DB0E2F40F34282E1
S11305400D9A002A40F06782099C0025DDF8188086
S1130550B8F1000F0DD0079B002B0ADD4345069A26
S1130560A8BF4346D21AA8EB03080692079AD31AE7
S11305700793099B0BB30D9B002B00F0A682002C64
S113058000F0A18229462246584605F07BFD029AD6
S113059001460546584605F0CBFC029906465846E6
S11305A005F046FC099B1B1B099300F09182099AF4
S11305B03146584605F066FD02900121584605F083
S11305C0A1FC109B0446002B00F084821A460146CD
S11305D0584605F057FD089B0446012B03DC009B9D
S11305E0002B00F07C820026236904EB8303186946
S11305F007F0C0F8C0F120001096079B184410F0D3
S11306001F0000F09182C0F12003042B40F381828B
S1130610C0F11C00069B034480440693079B0344DB
S11306200793069B002B05DD1A460299584605F0F0
S113063083FD0290079B002B05DD21461A46584690
S113064005F07AFD0446119B002B00F076822146CA
S1130650029807F0DEF8002880F26F8200230A2255
S11306600299584605F006FC0D9B7E1E0290002B55
S113067000F05C82002329460A22584605F0FAFB62
S1130680049B0546002B03DC089B022B00F35E82CF
S1130690B8F1000F05DD29464246584605F04CFDE9
S11306A00546109B002B00F0D0826968584605F07F
S11306B07FFB0746002840F07F820D4B024640F244
S11306C0EF2158E5E20706D508F10108D5E9002332
S11306D006F078F80123641008350BE74FF00208A0
S11306E00DE700BFE8820000C08200000000F03F78
S11306F04682000020460022AC4B294606F062F8F0
S11307007E1E08F10108049CCDE90001404604F076
S1130710FBFADDE9002306F055F8A54B002204F0AE
S1130720A7F9A1F15073CDE90E010F93002C3BD131
S11307300022A04BDDE9000104F098F902460B46C3
S1130740CDE90023DDE90E2306F0CCFA002840F0C1
S11307505781DDE90E2101F10043DDE9000106F0D6
S1130760A3FA00283FF4E2AE002425460C9BDDF8F2
S11307700CA0DE434FF000082146584605F058FB14
S1130780002D00F0A980B8F1000F05D0A84503D0D2
S11307904146584605F04CFB2946584605F048FBAF
S11307A09AE03E464C46B1E7834B03EBC40353E95E
S11307B00201039B1C440D9B002B4AD002460B46AE
S11307C000207E4906F028F9DDE90E2304F04EF9F5
S11307D0DDF80CA0CDE90E01DDE9000106F0A2FA76
S11307E0054604F091FA024630350B46DDE9000176
S11307F004F03CF90AF8015B02460B46CDE900011E
S1130800DDE90E0106F06EFA002865D100206C497E
S1130810DDE9002304F02AF902460B46DDE90E0166
S113082006F060FA002840F00D81A24500F0EA804D
S113083000225E4BDDE90E0105F0C4FF00225B4B94
S1130840CDE90E01DDE9000105F0BCFFCDE90001B1
S1130850C2E7DDE90E2305F0B5FFA046DDF80CA0E4
S1130860CDE90E01DDE9000106F05CFA054604F06D
S11308704BFA024630350B46DDE9000104F0F6F888
S11308800AF8015B02460B46A245CDE900234FF06E
S1130890000223D1494BDDE90E0104F0E9F80246D8
S11308A00B46DDE9000106F01DFA002840F0CA807D
S11308B000204249DDE90E2304F0D8F802460B4635
S11308C0DDE9000106F0F0F970B1C24608F1FF3825
S11308D01AF8013C302BF8D0374655E0334B05F07D
S11308E071FFCDE90001BDE7DDE90A34CDE900344B
S11308F0159B002BFFF628AE0E2F3FF725AE2E4B8F
S113090003EBC70393ED007B0C9B002B8DED047B65
S113091002DAB9F1000F64D0DDF80CA0DDE900457E
S1130920DDE904232046294606F076F806F0FAF9B4
S1130930064604F0E9F9DDE9042305F043FF024625
S1130940204606F130040B46294604F08FF80AF8D5
S1130950014B039C02460B46AAEB0404A14540F05C
S1130960828004F085F804460D46DDE9042306F090
S1130970B9F9002865D120462946DDE9042306F0AB
S113098089F908B1F3075CD40299584605F050FA86
S1130990002301378AF80030129B1F60219B002B33
S11309A03FF421ACC3F800A01DE400BF00002440C4
S11309B000001C4000001440E88200000000E03FFA
S11309C00000F03FA24B03EBC70393ED007B0C9BAD
S11309D0002B8DED047B9FDAB9F1000F9CDC7FF4D2
S11309E0C3AE00229B4BDDE9040105F0EBFEDDE91B
S11309F0002306F06DF9044600287FF4B5AE3E46A8
S1130A002546B4E0DDE90A34CDE90034159B002B1A
S1130A1001DB0E2FD6DD089A012A36DC139A82B345
S1130A2003F23343099CDDF81880069A01215846E5
S1130A301A440692079A1A44079205F063FA054687
S1130A4086E53E4653469A4613F8012D392A06D1C7
S1130A50039A9A42F7D13022039901360A701A7820
S1130A6001321A7038E700227B4B05F0ABFE0022FE
S1130A70002304460D4606F00DF900283FF450AF5C
S1130A8082E7149BC3F13603CCE709F1FF34099BD9
S1130A90A34208DBB9F1000FA3EB04040EDBDDF87D
S1130AA018804B46C1E7099B109AE31A0994DDF8B4
S1130AB0188000241A444B461092B6E7069BA3EB19
S1130AC009080023B1E7029E71E5099A029970E5CD
S1130AD0029672E5089B012B17DC009BABB9019BC6
S1130AE0C3F313039BB9019B23F00046360D36056F
S1130AF036B1069B012601330693079B0133079306
S1130B00109B002B7FF470AD1096012075E5002634
S1130B10F6E73FF486AD1C33069A1A4498440692CD
S1130B20079A1A4407927CE50346F4E7049B002BDA
S1130B302BDC089B022B09DC27E0B9F1000F1DDC3C
S1130B40089B022B1ADD3E46CDF81090049B002B27
S1130B507FF40CAE21460522584605F08BF9014678
S1130B600446029806F055FE00287FF7FFADDDF835
S1130B700CA0312301360AF8013BFBE50D9B3E46F0
S1130B80CDF81090002B7FF483AD039F214602988B
S1130B9006F063FD039B00F13009049A07F8019BFA
S1130BA0FB1A9A4240F3CB8000230A22029958464A
S1130BB005F060F90290E9E72A6905F10C010C30AF
S1130BC00232920006F034FD01223946584605F0FF
S1130BD0B3FA039BA846054603F1010ADDE90323A2
S1130BE013440793009B03F0010309930AF1FF33B5
S1130BF021460298049306F030FD4146069000F128
S1130C003009029806F005FE2A4621460746584652
S1130C1005F0FEFAC268014602B3584605F008F929
S1130C20002F3ADA01220299584605F085FA214646
S1130C30029006F0EEFD002803DC29D119F0010F23
S1130C4026D0B9F1390F1DD132E02846C1E700BFE3
S1130C50E882000000001440000024400A9002983A
S1130C6006F0D7FD0A990C90584605F0E1F80C9A65
S1130C705ABB089B53B9099B43B9B9F1390F17D033
S1130C80002F05DD069B03F1310901E0002F2ADA6C
S1130C90DDF810A00AF8019B6EE5089B3B4304D1E4
S1130CA0009B03F00103002BBCD0B9F1390F36D1FE
S1130CB0049F392307F8013BBA46013F1AF8013C67
S1130CC0392B5AD001333B7056E5002F06DB089BC5
S1130CD03B4306D1009B03F0010313B9002AA1DCB6
S1130CE0D6E7002AE1DC079B57460AF8019C5345E6
S1130CF02ED000230A220299584605F0BBF8A845D5
S1130D0002904FF000034FF00A02414658460BD1BF
S1130D1005F0B0F8804605460AF1010A66E7DDF8F9
S1130D2010A009F10109B5E705F0A4F829468046A9
S1130D3000230A22584605F09DF80546ECE7049B7B
S1130D404FF00008002BCCBF1F460127039B1F4414
S1130D5001220299584605F0EFF92146029006F067
S1130D6058FD0028A8DC02D119F0010FA4D1BA461D
S1130D7017F8013D302BFAD0FEE4039BBB429BD114
S1130D803123039A01361370F6E4219B002B7FF480
S1130D9025AA014BFFF744BAC981000000000000F6
S1130DA051EC100BC1F30A532DE9F041A3F2FF35C6
S1130DB00C460646132D32DC002D20DB384B0F4643
S1130DC043FA05F801EA080303432DD032A3D3E91B
S1130DD0002303F04DFE0022002305F083FF40B101
S1130DE0002C03DA4FF480132B411F4427EA080434
S1130DF000262346324643EC102BBDE8F08126A39F
S1130E00D3E9002303F034FE0022002305F06AFF37
S1130E100028EED0002C2ADB00263446E9E7332DE7
S1130E2006DDB5F5806F1BD041EC100BBDE8F081F9
S1130E30A3F213434FF0FF37DF400742F4D016A369
S1130E40D3E9002303F014FE0022002305F04AFF37
S1130E500028CED0002C334610DB23EA0706C8E76F
S1130E6002460B4603F004FE41EC100BDEE724F0CF
S1130E70004426430DD14FF00044BAE7142D06D0A8
S1130E80C5F134050122AA401344B342E5D201342A
S1130E90E3E70026034CACE79C7500883CE4377E0E
S1130EA0FFFF0F000000F0BF0348044B834202D051
S1130EB0034B03B118477047FC110020FC110020BC
S1130EC000000000064B0749C91A891048BF0131C8
S1130ED0491003D0044B0BB101481847704700BFB9
S1130EE0FC110020FC1100200000000010B5064C8D
S1130EF0237843B9FFF7D8FF044B13B10448AFF389
S1130F0000800123237010BD7A1700200000000028
S1130F100884000008B5054B1BB105490548AFF32B
S1130F200080BDE80840FFF7CDBF00BF000000000F
S1130F30FC11002008840000A3F5803A704700BF2C
S1130F40174B002B08BF134B9D46FFF7F5FF0021FD
S1130F508B460F461348144A121A06F050FB0E4BE8
S1130F60002B00D098470D4B002B00D09847002051
S1130F70002104000D000D48002802D00C48AFF3F6
S1130F80008004F0F9FD2000290005F0F5FE04F0CE
S1130F90D5F800BF000008000000000000000000B9
S1130FA000100020FC110020A81700200000000001
S1130FB00000000038B50C4D05F006FF05F005FFF4
S1130FC00A49286806F06BF803F0F8FC06F07BF990
S1130FD0044605F0F9FE05F0F8FE224628680449A7
S1130FE0BDE8384006F05BB878120020107C0000A1
S1130FF0177C000010B5234C01F026F901F00EFB1C
S1131000236F23F0070343F00303236705F0B1FFC5
S11310101D4B00209B6A9B075EBF01221B4B9A62FB
S1131020D4F8203123F0030343F00203C4F8203141
S1131030D4F8243123F0070343F00203C4F8243125
S1131040D4F8403123F0030343F00203C4F84031E1
S1131050D4F8603123F0030343F00203C4F8603191
S1131060D4F8403223F0030343F00203C4F84032BF
S1131070D4F8003223F0070343F00203C4F800322B
S113108010BD00BF0080005000C0005000E00050C0
S113109008B5134B1B68C3F30743012B0ED1114B47
S11310A004205A6E4FF480230F49520358BF0F4A4D
S11310B04B6601F51041086258BF536602F07CFD8F
S11310C005F08FFE02F00AFD02F02AFD02F05EFD3B
S11310D0FFF790FF02F012FDBDE8084005F078BE6E
S11310E00080E00F008000500090005000A00050ED
S11310F030B595B01F4D0DAC0FCD0FC495E807006A
S1131100032384E807008DF84D3029231A4A1B492C
S1131110CDE902231A4B0E22CDE904134FF4807358
S113112000210DF12600069306F069FA4FF4A02081
S1131130144B0DAACDE907030F238DF82430102397
S11311408DF82530104B11480A9320230B9340F25D
S11311500113ADF830300E4B07A9009302AB02F037
S1131160F5FF044618B185210A4805F047FE2046DC
S113117015B030BD507C000000000650000500068C
S113118000080007240006507B170020601200208E
S113119014120020217C000008B5FFF7A9FF28B134
S11311A0BDE808409721024805F028BE08BD00BFED
S11311B0217C0000014805F0ECBF00BF6012002054
S11311C0014805F01CBE00BF6C7C0000014805F01E
S11311D07DBE00BF847C000008B50122074B1A7055
S11311E00022074B1A700422064B1A701F22064B6A
S11311F01A7002F00BFD054B186008BDEF110020BA
S11312009B170020EE110020ED1100207812002021
S113121008B500F02DF8124B12498B4212D300206E
S1131220114B12498B4218D3FFF78AFE186850F805
S11312302240586840F82240013298688242F5D32F
S11312400C33EAE70022F8E71C6844F82200013274
S11312505C68A242F8D30833E4E70022F8E700BF51
S1131260108400001C8400001C8400001C84000006
S113127010B54FF400414FF0FF30124B124A9A6000
S1131280D3F8882042F47002C3F888200F4A91668C
S113129001F1884101F5005210664FF6DF70506687
S11312A00220C3F8D000BFF34F8FBFF36F8F082421
S11312B04FF440330648C0F88041D36004600B61AA
S11312C010BD00BF00ED00E00000000000900050E1
S11312D000E100E0014B1868704700BF04100020D3
S11312E0084B1B6F03F00703022B04D0032B05D01C
S11312F0012B05D0FEE7044B18687047034BFBE74E
S11313000348704700800050041000200C10002097
S1131310002D310108B5FFF7E3FF054B1B6FC3F345
S113132003330133B0FBF3F0024B186008BD00BF78
S113133000800050001000200048704700B4C4042E
S1131340014B1868704700BF0C100020054B186053
S1131350054B1B6F03F00703032B01D1FFF7DABF23
S1131360704700BF0C1000200080005000487047F8
S1131370002D3101014B1868704700BF0810002090
S11313800346054A0549106803448B428CBF4FF05D
S1131390FF301360704700BF101000200080002051
S11313A038B5032804460D4605D80C4B33F81030E5
S11313B0CB40DB0704D440F2CF31094805F01EFDD1
S11313C01422302313FB042303F1A04303F57033E9
S11313D01868E84000F0010038BD00BF127D00002D
S11313E09C7C000037B50468012105463A2000F0D2
S11313F071FD002301226179207901F0D9FC617922
S11314002079FFF7CDFFB0FA80F35B092370A3794D
S1131410022B15D100F00CFB2A460B49607900F031
S113142031FBFF28054603D14F21084805F0E6FCAF
S11314300123617920792A46CDE9003301F048FC83
S1131440002003B030BD00BF0B6E0000CE7C000056
S113145038B5032804460D4605D80B4B33F8103035
S1131460CB40DB0704D440F2FE31084805F0C6FC4B
S113147030220123544342F2100204F1A044AB4051
S113148004F57034A35038BD1A7D00009C7C000024
S113149038B5032804460D4605D80B4B33F81030F5
S11314A0CB40DB0704D440F22D41084805F0A6FCEC
S11314B030220123544341F2100204F1A044AB4012
S11314C004F57034A35038BD1A7D00009C7C0000E4
S11314D038B504784578032C05D80B4B33F8143011
S11314E0EB40DB0704D44FF48961084805F086FC1F
S11314F030220123544343F2100204F1A044AB40D0
S113150004F57034A35038BD1A7D00009C7C0000A3
S113151070B505780446032D467805D80D4B33F88D
S11315201530F340DB0704D44FF483610A4805F017
S113153065FC3023102213FB052303F1A04303F5BC
S113154070331B68F34003F00100A3780BB980F0FB
S1131550010070BD1A7D00009C7C00002DE9F04F55
S113156085B09A46554B06461B780F461546DDF85E
S11315703C909DF844B0DDF85080002B00F097803B
S1131580072A00F296800E9B002B00F09280B9F19E
S1131590000F00F08E80129BB3F5006F00F389807A
S11315A0012803D1109B002B00F08380444B03EBF4
S11315B005131B7B002B7ED0424C10220021684671
S11315C006F01DF804EB45141022A7BB394620464B
S11315D006F015F843F210036380BBF1000F03D14A
S11315E0E37843F00303E370364A0E9B02EB451C99
S11315F0CCE90193129B6901581E9DF84C30C0F34D
S11316000A0003F003039B0643EA001E53582E48C6
S1131610012E00EA03004EEA0003CDF800A0535067
S113162017D0B8F1000F2ED19CF8023068F30413E0
S11316308CF8023027E00021204605F0E0FF4FF44B
S113164044736380BBF1000FCED1E37843F03003E1
S1131650C9E713230CF1100ECCF80C309CE80F00F2
S11316608EE80F006FF00301DCF81C20109B61F37F
S11316709F02012FCCF81C20CCF8143003D1CCF8F5
S11316801890CCF8043000270D4A290102EB051309
S113169042F80180159A28465A60694622469F609E
S11316A05E7301F07DFF384605B0BDE8F08F074852
S11316B0FAE70748F8E70748F6E700BF9C17002059
S11316C07C1300207C1200200F80FFF3028000F0C6
S11316D0018000F0078000F038B5124B05461B78F6
S11316E0DBB1E0B105F061FC0F4A00231146147B25
S11316F054B92B6001251A0101EB03131D738C509F
S113170005F059FC204638BD0133082B02F11002C4
S1131710EDD105F050FC0548F5E70548F3E7054829
S1131720F1E700BF9C1700207C130020048000F028
S1131730028000F0018000F038B505F036FC00238B
S113174005460B4A147B6CB90133082B02F11002D5
S1131750F8D101F09DFE074B28461C7005F02BFCC8
S1131760204603E0284605F026FC034838BD00BFA8
S11317707C1300209C170020058000F010B50D4B51
S113178004461B7893B1072812D805F00EFC0A4BC7
S113179003EB04131A7B2AB100241C7305F00BFC21
S11317A0204610BD05F007FC0448FAE70448F8E7B2
S11317B00448F6E79C1700207C130020068000F004
S11317C0028000F0018000F013B5154B1868002367
S11317D001908DF8043005F0E8FB124B1C7824B11D
S11317E005F0E9FB104802B010BD01221A7005F0A3
S11317F0E2FB0E4B01A81C731C7783F82C4083F882
S11318003C4083F84C4083F85C4083F86C4083F898
S11318107C4008238DF8073001F078FE2046E2E78B
S1131820227D00009C170020038000F07C13002020
S113183008B50A4A12785AB107280BD8084A02EBAD
S113184000131B7B43B1002101F040FE002008BDC2
S11318500448FCE70448FAE70448F8E79C1700202A
S11318607C130020028000F0018000F0078000F06B
S113187008B50A4A12785AB107280BD8084A02EB6D
S113188000131B7B43B1012101F020FE002008BDA1
S11318900448FCE70448FAE70448F8E79C170020EA
S11318A07C130020028000F0018000F0078000F02B
S11318B008B50A4A127852B107280AD8084A02EB36
S11318C000131B7B3BB101F0EBFE002008BD054873
S11318D0FCE70548FAE70548F8E700BF9C17002035
S11318E07C130020028000F0018000F0078000F0EB
S11318F00D4B1B7893B1072812D889B10B4B03EB1E
S113190000131B7B73B10A4B1A6D012383401342EE
S113191014BF0123002300200B7070470548704753
S113192005487047054870479C1700207C13002029
S113193000000450028000F0018000F0078000F0F5
S113194010B50B4A0C46127862B107280CD859B16D
S1131950084A02EB00131B7B43B101F0BDFE20706B
S1131960002010BD0448FCE70448FAE70448F8E7FF
S11319709C1700207C130020028000F0018000F0FE
S1131980078000F02DE9F041174B1F6D5B6D1F4080
S113199000D5FEE701260025144CDFF858803742B5
S11319A018D02368C8F85060A3B1A1682846013153
S11319B06268A1609847637B012B0BD150B90C4B33
S11319C003EB45131A7B60F341021A731A7F60F329
S11319D041021A770135082D4FEA460604F1100436
S11319E0DDD1BDE8F08100BF000004507C1300206D
S11319F07C1200200020045070B5012504460B4ED3
S1131A0004B970BD94FAA4F0B0FA80F005FA00F3BA
S1131A1006EB001224EA03045368002BF0D0117B78
S1131A2011B191689847EBE79847E9E7FC13002068
S1131A3008B5192000F0F0FF28B14FF00072074BF1
S1131A40C3F880211A601A2000F0E6FF28B14FF095
S1131A508062024BC3F880211A6008BD00E100E0F7
S1131A6038B505460C4605F0A0FA0022044B03EBFA
S1131A7005135C601A73BDE8384005F09CBA00BFDA
S1131A80FC130020F8B505460E46174605F08DFAFE
S1131A90134B2C46D3F8242405F0FC0122FA05F359
S1131AA0DB0712D500230133DBB2042B04D1FF245E
S1131AB005F081FA2046F8BDEC1804F003040C4448
S1131AC022FA04FC1CF0010FEDD1FF2CF0D001220E
S1131AD0044B03EB0413C3E901671A73E8E700BF7F
S1131AE000C00350FC130020074BD3F82404D3F8A0
S1131AF0202403F50053104000F0553020F050200E
S1131B00C3F82004FFF778BF00C00350074BD3F895
S1131B102404D3F8202403F50053104000F0AA3025
S1131B2020F0A020C3F82004FFF766BF00C00350D4
S1131B30044BD3F88420D206FBD4D3F88400C0F33A
S1131B40811070470040005038B5124B0546D3F859
S1131B5020310C4603F00303022B0BD0032B0DD0D2
S1131B60012B0FD1FFF7B6FB052305B1286004B1A3
S1131B70236038BDFFF7E4FB0323F6E7FFF7F6FB2A
S1131B800223F2E7044841F2711105F037F900230A
S1131B901846EAE700800050267D0000F7B50027CC
S1131BA0114B0197D3F88041064604F00304012C3D
S1131BB00D4608D0022C12D041F2BE210B4805F08C
S1131BC01DF93C4604E0394601A8FFF7BDFF0F2488
S1131BD00EB1019B336005B12C6003B0F0BDFFF77B
S1131BE0C5FB0190F4E700BF00800050267D000093
S1131BF038B5194B0546D3F824310C4603F00703D6
S1131C00013B052B20D8DFE803F0030F171B0B1350
S1131C10FFF760FB052305B1286004B1236038BDDC
S1131C20FFF758FB0623F6E7FFF78AFB0323F2E7E7
S1131C30FFF786FB0423EEE7FFF798FB0223EAE7AE
S1131C4005F0D4F80723E6E7044840F6C76105F039
S1131C50D5F800231846DEE700800050267D0000FA
S1131C6038B5124B0546D3F840310C4603F0030354
S1131C70022B0BD0032B0DD0012B0FD105F0B8F89C
S1131C80092305B1286004B1236038BDFFF772FB56
S1131C900823F6E705F0AFF80B23F2E7044841F216
S1131CA09F1105F0ABF800231846EAE700800050C6
S1131CB0267D000038B5154B0546D3F800320C4696
S1131CC003F00703013B032B18D8DFE803F0020AF3
S1131CD00E1205F08DF8092305B1286004B12360C4
S1131CE038BDFFF747FB0823F6E705F084F80B231C
S1131CF0F2E7FFF70FFB0E23800AEDE7044841F2F9
S1131D00743105F07BF800231846E5E700800050A5
S1131D10267D000038B5124B0546D3F840320C46F8
S1131D2003F00303022B0BD0032B0DD0012B0FD197
S1131D3005F05EF8092305B1286004B1236038BDBD
S1131D40FFF718FB0823F6E705F055F80B23F2E735
S1131D50044841F2073105F051F800231846EAE738
S1131D6000800050267D000038B5124B0546D3F89C
S1131D7060310C4603F00303022B0BD0032B0DD070
S1131D80012B0FD105F034F8092305B1286004B103
S1131D90236038BDFFF7EEFA0823F6E705F02BF8C9
S1131DA00B23F2E7044841F2CD1105F027F8002394
S1131DB01846EAE700800050267D000010B40F4C5E
S1131DC00B46D4F8204204F00304012C0ED0022C5C
S1131DD010D008B1002101600BB100221A6040F656
S1131DE0F16107485DF8044B05F008B85DF8044B51
S1131DF0FFF7AABE5DF8044BFFF732BF0080005026
S1131E00267D000010B5B0F5207F34D009D8B0F598
S1131E10007F2AD003D898B1B0F5C07F10D0002439
S1131E2021E0B0F5607FFAD1154BD3F88030C3F3CD
S1131E3001149B0617D5032C15D04FF421710FE024
S1131E400F4B1C6F230B13F00E0FC4F303340AD093
S1131E50072C08D00F2C06D0032C04D04FF41D718E
S1131E60084804F0CBFF601C10BD054BD3F890402C
S1131E70C4F30464F7E7024B1C6FC4F38024F2E755
S1131E8000800050267D000010B54FF400320E4B48
S1131E9004469A660020FFF7B5FF604341F67132AD
S1131EA00A4C0B4BA04294BF00200120D969DA638D
S1131EB09A6822F4401242EA00529A60CA0344BF6C
S1131EC00022DA6310BD00BF00900050005A620285
S1131ED00000035070B5460904460D460ED140F289
S1131EE01B310D4804F08AFF334604F01F047DB112
S1131EF003F580530122A2401A6070BD012E05D063
S1131F00064B074A022E18BF1346EEE7054BECE7D3
S1131F1003F50053EEE700BF267D00006880005003
S1131F20608200506480005030B585B00023802862
S1131F300446019374D02AD8002877D0A0F1200455
S1131F40412C32D8412C30D8DFE804F07073707320
S1131F50888888887373923FA8653F7373732F2FA3
S1131F602F2F2F2F8D57737373B2AD732F2F2F2FE6
S1131F702F2F2F2F2F2F2F2F2F702F707070882F10
S1131F802F2F2F2F2F2F2F2F2F2F2F2F7070B0F594
S1131F90806F63D024D8B0F5007F55D00BD8B0F54E
S1131FA0807F6AD0B0F5C07F40D04FF48F61434842
S1131FB004F024FF37E0B0F5607F45D0F5D8B0F5E4
S1131FC0207F36D0B0F5407FEFD1FFF7A3F9044668
S1131FD04FF42070FFF716FFB4FBF0F4640831E00F
S1131FE0B0F5C06F5AD00DD8B0F5A06F3BD0B0F5A6
S1131FF0B06F3DD0B0F5906FD7D1002101A8FFF7A5
S1132000F7FD10E0B0F5E06F4DD0B0F5F06F4FD0B4
S1132010B0F5D06FC9D1002101A8FFF74BFE02E053
S1132020FFF75EF90190019805B030BDFFF772F932
S1132030F8E7FFF76FF904464FF42070FFF7E2FE6C
S1132040B4FBF0F40194EEE7FFF74AF905462046A5
S1132050FFF7D8FEB5FBF0F50195E4E7002101A8F0
S1132060FFF772FDDFE7002101A8FFF7A7FEDAE71B
S1132070002101A8FFF792FDD5E702934FF0E0237A
S11320801B695B0705D5FFF745F90290029B019395
S1132090C9E703A902A8FFF7E3FDF7E7002101A8B8
S11320A0FFF7DEFDBFE7002101A8FFF733FEBAE723
S11320B0002101A8FFF758FEB5E700BF267D000008
S11320C008B58020FFF730FF034B98429EBF4FF4C2
S11320D08032024B1A6708BD005A620200A0005009
S11320E01FB50023B0F5807F01937FD027D838280F
S11320F000F09C800BD82438092810D809280ED861
S1132100DFE800F06F6F6F6F0D0D670D3685522895
S113211067D007D83D283AD03E2800F08C8040F2A2
S1132120595152E08028FAD1454B1B6F03F0070345
S1132130013B032B47D8DFE803F044413F75B0F57A
S1132140D06F64D019D8B0F5A06F6FD00AD8B0F5AD
S1132150806F46D0B0F5906FE1D1002001A9FFF760
S113216047FD3AE0B0F5B06F33D0B0F5C06FD6D1CB
S1132170002001A9FFF774FD2FE0B0F5006FECD04B
S11321800AD8B0F5E06F56D0B0F5F06FC7D1002093
S113219001A9FFF7E9FD20E0B0F5086FBFD1284B96
S11321A0D3F8003103F00303022B35D0032B37D0CF
S11321B0012B39D1FFF7C4F8032300E00523019371
S11321C00BE00223FBE740F2AA411E4804F016FE8E
S11321D003E0002001A9FFF7E1FC019805B05DF8D8
S11321E004FB002001A9FFF7AFFCF6E702934FF0D0
S11321F0E0231B695B0705D5FFF78CF80C230393D9
S1132200039BDCE703A902A8FFF72AFDF8E70020F7
S113221001A9FFF74FFDE0E7FFF7ACF80823CEE78D
S113222004F0E4FD0723CAE70123C8E7002001A95D
S1132230FFF7C4FDD1E7002001A9FFF76BFDCCE750
S113224000800050267D00004FF40022034B5A66A4
S1132250012203F580439A62704700BF009000504A
S1132260F8B5036804460F2B04D940F6F2216C48F4
S113227004F0C4FD63680F2B04D940F6F5216848C7
S113228004F0BCFDA3680F2B04D940F6F821644880
S113229004F0B4FD237B0F2B04D940F6FB216048E6
S11322A004F0ACFD637B0F2B04D940F6FE215C489F
S11322B004F0A4FDA37B3F2B04D940F60131584818
S11322C004F09CFDE37B3F2B04D940F604315448D1
S11322D004F094FD2369032B04D940F607315048D8
S11322E004F08CFD6369032B04D940F60A314C4891
S11322F004F084FDE369012B04D940F60D3148480C
S113230004F07CFD8020FFF7EBFE032800F08780BB
S11323104FF40022434B02215A6645F60E03424A0B
S1132320C2F88030414B9962012103F580539962D0
S1132330936DD903FCD4D4E900131B0543EA01636C
S1132340E17B94F820500B43217BE77E43EA014371
S1132350617B6D0143EA0133A17B43EA811313617D
S11323609169D4E904031B0643EA806301F0004148
S11323700B43A17E94F823000B43217E43EA0143DF
S1132380617E43EA01239361136AE66923F00D0336
S113239094F8221043EA8703002E2DD11362966A23
S11323A094F8213045EA031326F033052B4343F018
S11323B0010393621E4D1C4B9A6D35EA0202FBD158
S11323C002221A4DAA621A659A6D5200FCD41A6947
S11323D0A56822F4700242EA05521A614FF00042E5
S11323E0124B9A6119B9022203F580539A6278B9A3
S11323F00122104B9A620BE0334343F0080313624B
S1132400936A23F0330303432B4343EA4103936268
S113241094F824301BB1044B074AC3F88020F8BD5C
S1132420267D00000090005000C0005000D00050F5
S11324300300014000E00050F1A7FFFF014B93F9B6
S1132440000070479D17002010B543680446072B11
S113245004D940F614512A4804F0D0FCA368032B95
S113246004D940F61651264804F0C8FC2378032BFF
S113247004D940F61851224804F0C0FC94F9013004
S1132480002B04DA40F61A511D4804F0B7FC4FF44F
S113249080011C4A637851664FF4D151022002F541
S11324A0B832516218494F2B48604FF0010028BFE1
S11324B04F2301F5805148601169C903FCD4217888
S11324C043EA01235361D4E901131B0143EA0123C5
S11324D0617B0B43217B43EA41039360E37BA17B54
S11324E01B0143EA4113617C0B43217C43EA410312
S11324F05360A37C13B16FF4D153536210BD00BF7A
S1132500267D00000090005000100250014B1880FE
S1132510704700BFE811002010B5B0F5207F65D0EA
S11325200ED8B0F5007F4FD003D800B3B0F5C07F0C
S11325301DD040F2FE21BDE81040344804F05EBCDA
S1132540B0F5607FF5D14C1E012C06D9042904D0C6
S113255040F2E1212D4804F051FC2D4AD2F880309C
S113256023F0300343EA0413C2F8803010BD4C1E3C
S1132570012C0AD9102903D8264BCB40DB0704D4FD
S113258040F2B521214804F039FC04F0DFFC04F0EA
S1132590EBFC4FF48031204B1D4A1967136F23F471
S11325A0704343EA04331367FEF7B4FE0446FFF7AF
S11325B0BFFAC0F10201204604F0D0FC00F03EF85E
S11325C0BDE81040FFF77CBD4C1E1F2C04D940F21F
S11325D0F2210E4804F012FC0D4AD2F8903023F098
S11325E0F85343EA0463C2F89030BFE74C1E012C51
S11325F004D94FF43E71054804F000FC044A136FFB
S113260023F4806343EA84231367AFE7267D000045
S113261000800050100101000090005008B5012115
S1132620022000F01DFA04F091FC04F09DFC4FF42C
S11326308032014B1A6708BD0090005008B54FF472
S1132640C070FFF771FCBDE808400449884294BF9C
S1132650012102214FF42070FFF75EBF80F0FA02DF
S113266070B5B0F5807F0C4600F008812BD838286F
S113267000F0A08110D82438092816D8092814D8C5
S1132680DFE810F0E100E100E100E10013001300D5
S1132690CC00130048005001522800F0D48007D821
S11326A03D2851D03E2800F09C814FF40F611FE17A
S11326B08028FAD18B1E052B00F2A580DFE803F0F9
S11326C0A091A3ABA364B0F5D06F00F02B8130D8F8
S11326D0B0F5A06F00F06E8115D8B0F5806F00F0F2
S11326E0B280B0F5906FE0D1023C052C00F213816A
S11326F0A74B195DA74AD2F8243123F007030B43F3
S1132700C2F824316CE0B0F5B06F00F08780B0F50A
S1132710C06FCAD1083C032C00F2EF809E4B195DB8
S11327209C4AD2F8403123F003030B43C2F84031F2
S113273056E0B0F5006FD7D015D8B0F5E06F00F0D3
S11327405081B0F5F06FB0D1083C032C00F2DC806E
S1132750924B195D8F4AD2F8603123F003030B4387
S1132760C2F860313CE0B0F5086F9ED14C1E072CD6
S113277000F20481DFE814F007010201F60002010F
S113278002010201000109010025042601210220A1
S113279000F066F904F0DAFB04F0E6FB4FF4803154
S11327A07F4B7C4A1967136F23F007033343136786
S11327B0FEF7B0FD0646FFF7BBF9C0F10201304653
S11327C004F0CCFB0121002000F09EF9FFF736FF56
S11327D0FFF776FC25B9032C02D10122714B9A62D2
S11327E070BD4FF400226E4B0E465A66012203F56B
S11327F040539D6A03F58053C5F340059A62C5E7CB
S113280000250126C2E700254FF4C261664804F0A2
S1132810F5FA2E46BAE700250226B7E7022C07D0C0
S11328200F2C0ED040F255615F4804F0E7FA002403
S1132830584AD2F8803123F003032343C2F880318D
S1132840CEE70124F4E7032C12D0052C12D0022C7D
S113285012D040F28C61544804F0D0FA00224D4961
S1132860D1F8203123F003031343C1F82031B7E733
S11328700222F4E70122F2E70322F0E7A1F10804BF
S1132880082C33D8DFE804F0050532051C32323257
S113289005004FF480323F4B4449586E03F5805392
S11328A05A660B6A43F001030B62C1035CBF404BE1
S11328B05A664FF0E022136923F0040313618FE793
S11328C04FF48032334B3949586E03F580535A66BE
S11328D00B6A23F001030B62C3035CBF344B5A66DB
S11328E04FF0E022136943F00403E7E740F2B461D8
S11328F0BDE870402C4804F081BA4FF4DA612A48EC
S113290004F07CFA00210BE740F2EE61264804F063
S113291075FA00211EE740F21371234804F06EFAA1
S11329200021E7E6083C062C13D8DFE804F019047C
S1132930040E1212100001221649D1F8003223F0BD
S113294007031343C1F800324AE70322F4E70422E1
S1132950F2E740F23371144804F050FA0022EBE736
S11329600222E9E701220B49D1F8003123F00303E5
S11329701343C1F8003133E70322F4E740F26F71E7
S1132980094804F03BFA0022EDE70222EBE700BF1E
S1132990577D0000008000505D7D00005D7D0000DB
S11329A00090005000E00050267D000000C0075059
S11329B000A000500F2C10D0102C10D040F2BD718C
S11329C0124804F01BFA00221149D1F8203223F0F6
S11329D003031343C1F8203202E70122F4E7022281
S11329E0F2E7083C032C0AD80A4B195D084AD2F8CE
S11329F0403223F003030B43C2F84032F0E640F6C2
S1132A003E01024804F0FAF90021EFE7267D0000B8
S1132A10008000505D7D000010B5C3B23F2B04461A
S1132A2004D940F21F31074804F0E8F9064B620963
S1132A3053F8220004F01F04E040C04300F00100FA
S1132A4010BD00BF617D000000E100E0034A017990
S1132A50D36E23F030030B43D3667047004000501D
S1132A60F8B50446244BD3F88420D006FBD4D3F81D
S1132A708430C3F381139C423CD0FEF731FC012C1B
S1132A8005460BD11D4B984204D940F23C711C48B9
S1132A9004F0B4F90121284604F060FA04F07EFA47
S1132AA04FF00072174B07465A66204604F086FA28
S1132AB04FF48063104E621E93403367736E9A0125
S1132AC003D4D6F884309B060AD5384604F06AFA53
S1132AD0022C0FD12846BDE8F840002104F03EBA8C
S1132AE0D6F884309906E9D540F24A71044804F0D6
S1132AF085F9E3E7F8BD00BF00400050005A6202C8
S1132B00937D00000060005010B50C4608B9FEF734
S1132B10E7FB074B21461B783BB1064B984204D890
S1132B200120BDE81040FFF79BBF0220F9E700BF7A
S1132B309E170020005A620210B54FF00042012493
S1132B404AF6CD31154B5A66154A03F50B235460EA
S1132B505A6C1964224088B9996811F0010F11491F
S1132B6003D08C60D86AC007FCD501234B6012B136
S1132B700D4B0E4A1A6404F022FA10BDD96A0907F3
S1132B80FCD42021074B59620121A3F5805399609D
S1132B9005494B6A9B06FCD5E9E700BF009000504D
S1132BA00050095000600950004009503254FFFFA2
S1132BB038B54FF00042174B174C5A66012203F503
S1132BC00C235A604AF6CD33656C236443789340F2
S1132BD01343124AD363C3788178A2689B0043EA03
S1132BE0011322F074021343A3600279837943EA48
S1132BF0022323614279C37943EA022363610078A3
S1132C00FFF79AFFEB0744BF054B236404F0D7F9A1
S1132C10012038BD00900050004009500040005091
S1132C203254FFFF70B51F2904460D46164603D9DA
S1132C309121064804F0E2F82EB104F580540123F2
S1132C40AB40236070BD04F50054F8E7C47D000078
S1132C5038B5032804460D4605D80B4B33F810301D
S1132C60CB40DB0704D440F22D41084804F0C6F8F9
S1132C7030220123544341F2100204F1A044AB403A
S1132C8004F57034A35038BD287E00009C7C0000FD
S1132C9038B5032804460D4605D80B4B33F81030DD
S1132CA0CB40DB0704D440F2FE31084804F0A6F818
S1132CB030220123544342F2100204F1A044AB40F9
S1132CC004F57034A35038BD287E00009C7C0000BD
S1132CD02DE9F84F032807460E46144698469DF8FA
S1132CE028A09DF82C9005D8274B33F81030CB4002
S1132CF0DB0703D4BF21254804F080F886EA0403E7
S1132D00032B03D9C121214804F078F8072C4FF094
S1132D10030506F0030625D84FEA840B05FA0BF5E4
S1132D2029461B4807FA0BF204F04AF929461948C8
S1132D3006FA0BF204F044F9424621461648FFF71E
S1132D4071FF524621461548FFF76CFF0123144AD0
S1132D50A340C2F8203421464A46BDE8F84F114842
S1132D60FFF760BFA4F1080B4FEA8B0B05FA0BF5D4
S1132D7029460D4807FA0BF204F022F929460B48BC
S1132D8006FA0BF2D6E700BF287E0000F57D0000AE
S1132D9000C4035008C4035010C4035014C40350A7
S1132DA000E0035024C4035004C403500CC4035073
S1132DB0F8B5032804460D4616461F4605D81C4B95
S1132DC033F81030CB40DB0704D44FF4B07119480A
S1132DD004F014F826B129462046CFB1FFF738FF96
S1132DE004EB4403072D4FF00F014FEA031312D8ED
S1132DF0A80006FA00F281400F48184404F0E0F8F5
S1132E00AEB92946204677B1BDE8F840FFF720BFA8
S1132E10FFF73EFFE4E7A5F10800800006FA00F2A0
S1132E2081400648E9E7BDE8F840FFF731BFF8BD47
S1132E30287E0000F57D000004C003500CC0035040
S1132E4038B5124B044698420D4604D040F28A210C
S1132E500F4803F0D3FF012204F5805361685A60E0
S1132E60EB786A785B0443EA02232A781343AA784E
S1132E70120402F480321343C4F89830CB0704D40C
S1132E802046BDE8384004F0AAB838BD0040005AD6
S1132E90307E000070B51E4B044698420E4615461F
S1132EA004D040F252211B4803F0A8FF204604F04E
S1132EB096F83378727803F0070343EAC203F27892
S1132EC0294643EA0223B2782046120102F0300276
S1132ED013432367E26A337922F48B321B0222F410
S1132EE0807203F4E0631343B27943EA02437279D4
S1132EF0120302F480521343E362FFF7A1FF01229D
S1132F0004F580535A60F37903B1E26070BD00BFE9
S1132F100040005A307E000010B52B4B0446984206
S1132F2004D040F20731294803F068FF012204F578
S1132F3080535A60264B274AE36063691340FCD1EF
S1132F40A361C4F89830636913F4401FFBD163692B
S1132F50DA052DD4A36F5BBB63699B052AD4D4F82F
S1132F6088203ABB2046E36FD4F88C3004F037F85D
S1132F703023A2602261E26222622367C4F88030B7
S1132F80114B9C4208D142F26001134BA1642365AA
S1132F906265A165236662660B4B9C4202D10021E7
S1132FA0102A0AD10D4B04F500546362A36210BDCC
S1132FB0636FCCE7D4F88430CEE702F1280043F8FD
S1132FC020100132ECE700BF0040005A307E0000C0
S1132FD0120002005200010000C002808F330F80F3
S1132FE010B5144B0C46984204D040F25D3112489F
S1132FF003F004FF74B92A20FEF796FF0446B0B12B
S11330000E4B984206D90B4B9B68C3F302730133F2
S1133010B0FBF3F40A4B04F5742404F23F24B4FB2C
S1133020F3F4601E7F2828BF7F20C0B210BD0124A6
S1133030F0E700BF0040005A307E0000005A6202F0
S113304040420F0038B5154B0D469842144604D043
S11330504FF46671124803F0D1FE35B940F299314C
S11330600F4803F0CBFEB4B1FFDE0E4B9D4228BFE8
S11330701D461CB92A20FEF757FF04462C44013C88
S1133080B4FBF5F0AC4228BF00F1FF30032828BFA1
S11330900320C0B238BD2546ECE700BF0040005A0B
S11330A0307E0000005A6202F8B51F46174B0E46E8
S11330B09842144604D040F2D231154803F09EFEE3
S11330C026B940F2D331124803F098FE114D124B49
S11330D0002F08BF1D46B54228BF35461CB92A201B
S11330E0FEF722FF04469DF8183040F2FF3001330A
S11330F0B4FBF3F46B1E1C44B4FBF5F3AC4228BFE1
S113310003F1FF33984228BF1846F8BD0040005A27
S1133110307E0000404B4C00809698002DE9F04F23
S11331202DED048B85B0CE4B054698420E461446D1
S113313003D0D921CB4803F061FEDFF8508300228D
S113314041462846FFF77EFF7779874238BF074616
S1133150284603F044FF3079FFB250B92A20FEF725
S1133160E3FE4045014628BFB0FBF7F12846FFF7D0
S113317037FFF3783A071B0102F0E04203F0300313
S113318013430004327800F4FE0003430AB143F011
S1133190020372780AB143F00403B2780AB143F02F
S11331A00803AB60F38832892B61738943EA0243D5
S11331B02B62AB4B9D4200F04F81012305F58055F6
S11331C06B6005B0BDEC048BBDE8F08FD6F88401CC
S11331D009F10506BBF1000F40F038819244DAF89A
S11331E04800C0F30230431E012B9F4B00F2DF80E6
S11331F0DFED9E7AD3F880311FFA83FA02F1B442EC
S11332002AF4C04302F580424FEA834B936C0122B7
S1133210C3F38203581C824007EE102A1AF4004FAD
S1133220B8EEC79AF6EE008A8F4818BF4BF0004BF1
S1133230002B40F0DD80D0F88C2113B208EE103A58
S1133240B8EEC88A38EE278A002940F0E88003A83F
S113325000F0D6FADFED867A9FED867A27EE888A2B
S1133260C7EE097A9FED847A67EE877AB1EE007A29
S1133270BBF1004F48EE077A0BD0DFED806A07EE12
S113328010AA37EEA66ABAEEE87AF0EE667A57EE3E
S1133290067AF5EEC07AF1EE10FACBBFF1EE677A5A
S11332A078EEE78A77EEE87AFDEEE87AC8BFFDEEBD
S11332B0E77A17EE902AB2F5003FC0F2BD806FEABC
S11332C05B436FEA4343664932018B50360106F192
S11332D0B446C8F3090306F58046736009F1010991
S11332E01434B9F1020F3FF468AF002294F800B02F
S11332F0DFF86CA162486349A668934518BF01468C
S11333005B4650460097FFF7CFFE1FFA86F88045CC
S11333100AEB091638BF8046B06C0BF0030C20F0A2
S1133320435020F41D1020F4405020F01F004CEABC
S1133330000C6078E178800000F01C004CEA000C7E
S1133340A0784FEA0912000300F4E0404CEA0000C0
S11333504FEA014C0CF4E02C40EA0C0094F810C045
S11333604FEA4C5C0CF4600C40EA0C0094F804C086
S11333704FEA0C7C0CF0405C40EA0C00B064B06C8A
S1133380394EC0F30230013804280DD80FF2040C72
S11333905CF820F0A9330000A9330000A933000031
S11333A0CD310000CD310000D6F8800110E70328AC
S11333B00BD1D3F88001D3F88C314FEA104A1B1497
S11333C007EE903AF8EEE77A18E70428D3F8840178
S11333D00BBFD3F88C31D3F88C311B141B1407BFEB
S11333E01FFA80FA5B004FEA104A03EB4303E7E756
S11333F0D0F8902169EE286A12B207EE102AB8EECE
S1133400C77AD0F8882177EE677A13B208EE103ABB
S113341087EEA67AB8EEC88A38EE078A14E7D4EDA8
S1133420037ADFED196AF8EE677A87EEA67AF7EE8B
S1133430046AC6EE877A0FE712F5003FAABFC2F30B
S113344011024BF4003342EA0B033CE740F2DF1174
S1133450044803F0D3FC39E74FF0000941E700BF0B
S11334600040005A307E00000080E00F00000000A1
S11334703D3B843F0000804300002044000000499D
S1133480404B4C008096980000007A44005A620237
S113349010B54FF400120B4BC3F88020BFF34F8FCD
S11334A0BFF36F8F0024FF22074B21465C65202069
S11334B09A625C60FEF70EFD2146BDE810402120B3
S11334C0FEF708BD00E100E00000045038B507280D
S11334D004460D4603DD7721084803F08FFC1F2CBA
S11334E003D99121064803F089FC064A064B002DB6
S11334F008BF13460122A2401A6038BD627E000054
S1133500C47D0000401004504020045010B504460F
S113351018B991211F4803F071FC23781B0613F09E
S1133520604F03D092211B4803F068FCE3780F2B13
S113353003D9A321174803F061FC01212020FEF7E1
S1133540C9FC01212120FEF7C5FC0122124B5A605F
S1133550227812069A606178A27842EA01429A615E
S1133560FF229A6200229A631A644FF000425A655D
S11335704FF0FF324FF4001103F500531A65074A68
S1133580C2F88011E3781B01DBB282F815331160B5
S113359010BD00BF627E00000000045000E100E0A6
S11335A02DE9F0410126C3B2072805460C46904692
S11335B006FA03F603DDEC21354803F01FFC1CB9C1
S11335C0ED21334803F01AFC236823F47C1323F021
S11335D00F031BB1F0212E4803F010FCA37A1B0447
S11335E013F47C0F04D040F20911294803F006FCBF
S11335F0E37A1B0513F07E6F04D040F20B112448CC
S113360003F0FCFB237B5B0513F0FE5F04D040F268
S11336100D111F4803F0F2FB1E4B1F4F1E6522685D
S113362003F5005343F82520302202FB0575637B24
S11336302B66E37AA27A1B0543EA0243227B43EA20
S11336404253EB6528F003032B6703F0AEFC7B6D5C
S113365033437B65237A13B13B6C33433B64637A16
S113366013B1BB6B3343BB632279A37943EA0243AF
S1133670084A93616179E37943EA014307498B611D
S1133680054B56639E64BDE8F04103F094BC00BF53
S1133690627E00000020045000000450001004501A
S11336A010B50124C3B2072804FA03F404DD40F280
S11336B09711074803F0A2FB03F077FC054B5A6D02
S11336C022EA04025A659C62BDE8104003F073BC10
S11336D0627E00000000045010B50124C3B2072824
S11336E004FA03F404DD40F2B5110A4803F086FB42
S11336F003F05BFC084BDA6A224208D15B6B9C4303
S11337000CBF0124002403F056FC204610BD002405
S1133710F9E700BF627E00000000045038B50228BB
S113372005460C4603D94C210C4803F067FBE378AB
S1133730627821785B0143EA820322790B4343EAEE
S113374002130C226A4302F1B0421363012902BF3F
S1133750A278034B43F8252038BD00BF947E0000B7
S1133760E880035008B54FF0B0435A686AB958B1BD
S11337705B680BB103F03BFC01210D4B596003F076
S113378036FC4FF0B043D96008BD5B680BB103F061
S11337902EFC0028F0D103F02AFC4FF0B0430222A3
S11337A0DA6003F024FC0122024B5A60ECE700BF0C
S11337B0001000580020005810B54FF0B0414B687D
S11337C00BB103F014FC01220B4BC4785A608378CC
S11337D0934043EA840344782343047943EA04137B
S11337E0447943EAC4038B60044B5A600378C3F101
S11337F00203CB6010BD00BF002000580010005829
S11338004FF48032064B5A6603F5E6235B69C3F333
S11338108512827003F03F021B0B427003707047E5
S113382000900050F8B507460C461D4616464AB9A6
S11338304FF4A171314803F0E1FA24B1402D09D1CC
S1133840062328E021B94FF42070FEF76DFB0446EF
S1133850402D42D0402D09D87DB1202D17D040F203
S11338608911BDE8F840254803F0C8BA602DF6D1A7
S1133870B6EB940F3CD804230DE0B6EB141F04D927
S11338804FF4BA711D4803F0B9FA102303E0B6EB04
S1133890D40F1CD808235E43730803EB4413B3FB13
S11338A0F6F3174E203BB6EBC30F4FEAC30404D222
S11338B04FF4D071114803F0A1FABB68344023F0EF
S11338C06003BB60BB681D43BD60FC61F8BD40F292
S11338D079110A4803F092FADCE70623B4FBF3F308
S11338E0B342ADD24FF4BF71044803F087FAA7E79F
S11338F040F28311014803F081FABCE7C67E000060
S1133900F8FF7F0038B50E4B044698420D4608D0A8
S113391003F58043984204D04FF43371094803F00F
S11339206DFA012204F580535A60EB43934003F08F
S11339300A036361656115B904F50054626038BD1A
S113394000C00550C67E000010B5174B04469842CF
S113395008D003F58043984204D040F24241134812
S113396003F04CFA012204F580535A6040F6AA632E
S113397041F20502636100230D49A360E365E2603F
S113398004F500522361E361E36491640649A3658D
S11339908C4203D123650023636502E005498C4210
S11339A0F8D00123536010BD00C00550C67E00004E
S11339B0FFFF01000000065070B5444B04469842D6
S11339C00D4608D003F58043984204D040F2FD210F
S11339D03F4803F013FA2046FFF7B6FF012304F52E
S11339E080567360AB7C1BB1A36843F08043A36033
S11339F0EB7C5BB1354A2B7D944245D1A2F5103264
S1133A00C2F88C31E36D43F08003E3652A8A6B7B53
S1133A1020461343EA891343E3602B7BD5E9011263
S1133A20FFF700FF6B7D1BB1A36843F48033A360F1
S1133A30AB7D1BB1A36843F40043A360EB7D2A7EF6
S1133A401B07120502F4E00203F0E0431343A365ED
S1133A50697E1E4A8B1E012B1E4B1FD894421BD01D
S1133A6002F5804294420CBF01224FF0FF3203EB77
S1133A704213022041F21C620329985020D10423EE
S1133A80F3652B78636170BD134A944204BFA2F5B9
S1133A902032C2F89C31B5E70022E8E794420DD009
S1133AA00D4A94420CBF01224FF0FF3203EB421344
S1133AB0022042F21C6201299850DFE70022F5E758
S1133AC0042204F50053DA65DBE700BF00C00550AB
S1133AD0C67E000000C003500000065007B56B46C8
S1133AE0054A1068516803C36846FFF761F800206F
S1133AF003B05DF804FB00BFF97E000013B5002499
S1133B00064A6846536F43F00103536700948DF8E7
S1133B100440FEF79BFF204602B010BD0040005059
S1133B2030B58BB06C46164D0FCD0FC40FCD0FC4FE
S1133B3095E8030084E80300124BD3F84C211203E8
S1133B4019D5A3F5FE431C884FF6FF739C4208BFAA
S1133B508C248DF81940FEF771FC204480F3080092
S1133B608DF818000848FDF7F1FB6846FEF778FB6E
S1133B7000200BB030BDD3F85041E4B2E9E700BFF8
S1133B80047F00000080E00F00F0490230B587B0E8
S1133B90084D01AC0FCD0FC42B6801A82360192375
S1133BA08DF80530FEF750FC6420FEF7AFFC0020D2
S1133BB007B030BD2C7F000010B56FF00403502116
S1133BC00A480B4C13F0800F03F1010207D1234480
S1133BD0402A83F800131346F4D1002010BD03F0EB
S1133BE00F03043B034419761346EBE700ED00E0B2
S1133BF000E100E010B5044603F0D0F9024B1C606C
S1133C0003F0D0F9002010BDFC15002010B503F01E
S1133C10C5F9034B1C6803F0C5F9204610BD00BF6D
S1133C20FC15002010B50020144603F0EDF918B17E
S1133C30BF21024803F0E2F8204610BD407F000097
S1133C40034B0222186800238068194601F08CBED9
S1133C502410002038B53022037A0446534303F17C
S1133C60A04303F58023DD6ED0E9032313449D4272
S1133C7001D8AA4204D94FF43E71054803F0BEF8B6
S1133C80D4E9030303449D4218BF284638BD00BF4E
S1133C90907F000030B587B0144605461046FFF704
S1133CA0D9FF6369024683423CBFD4E903315B1800
S1133CB01B1AABB11249049403910021CDE90131DF
S1133CC0012300932846D4E9001303F025F920B119
S1133CD04FF434710B4803F091F8002007B030BD65
S1133CE00122627694F82D20002AF6D084F835302B
S1133CF01321E369204698472046636A9847ECE716
S1133D00953C0000907F00002DE9F04788B0044600
S1133D100F461646984603F048F98146002E00F0F7
S1133D20AD80237E03F0FF02002B00F0E0802046EC
S1133D30FFF790FF63698246984206D1637E23B9F8
S1133D4040F27F316B4803F059F86569AA459DBF7D
S1133D50D4E903329B185D1BAAEB0505B54228BFC5
S1133D60354603F022F994F82D308246002B40F0BA
S1133D7096802A463846616903F05AFC63692E46E8
S1133D802B4463612CE06069037803F0FD01112981
S1133D9040F08280216B884205D1A3F111014B428E
S1133DA04B4184F83430013E6369216B01328B420C
S1133DB003F1010308BF236363619542E3D1D4E9AE
S1133DC00323216B1344994208BF2263216B8A4267
S1133DD001D88B4204D84FF46D71464803F00EF8B5
S1133DE0D4E9032361691344994208BF626161699C
S1133DF08A4201D88B4204D84FF471713D4802F0D5
S1133E00FDFF0023207A6376FDF712FD20B140F216
S1133E101131384802F0F2FF2046FFF71BFF6369B7
S1133E2083423FD10023E568237694F82D30656101
S1133E3003B125632046636A98472F4B0494039388
S1133E400023029323692A460193012300936368A4
S1133E502168207A03F060F820B140F22D31254822
S1133E6002F0CCFF207AFDF703FD20B140F251317E
S1133E70204802F0C3FF504603F09DF84846C8F8B6
S1133E80006003F098F8D8F80030002B0CBF1B201A
S1133E90002008B0BDE8F08707F8013B84E72E4610
S1133EA000228AE70123207A23760DF11E01FDF713
S1133EB047FD20B14FF450710E4802F09FFF9DF86A
S1133EC01E30207A002BCDD00DF11F01FDF710FD1F
S1133ED020B140F24631074802F090FF9DF81F10D0
S1133EE0207A0029BED12246FFF7D4FEBAE716464F
S1133EF0C4E700BF907F0000953C000070B5044605
S1133F000568FFF783FE844202D10020FFF772FEAA
S1133F1095F93630002B11DB012203F01F015B09F8
S1133F209B0003F160438A4003F56143C3F8802199
S1133F30C3F88020BFF34F8FBFF36F8F287AFDF74C
S1133F40B7FC20B14FF4ED71104802F057FF287A06
S1133F50FDF714FC20B14FF4EF710C4802F04EFF52
S1133F60FDF7EAFB38B10A4B984204D04FF4F171E3
S1133F70064802F043FF00232846C4E90033C4E99D
S1133F800433A360AB6ABDE870401847907F00001B
S1133F90058000F02DE9F84304460D4690F82C8086
S1133FA0DFF8AC908E18AE4228D094F82D3083B14F
S1133FB002F0FBFF237E07461BBB226B63699A4218
S1133FC004D040F2F911484602F018FF384602F0D6
S1133FD0F2FF94F83430002BE5D0B8F1000F06D08E
S1133FE02B780A2B03D10D212046E36998472046FC
S1133FF0E36915F8011B98470028D4D00020BDE8D8
S1134000F8832046FFF726FEE1680138884238BF6E
S11340102069D4F830C03CBF00F1FF30401803469B
S11340209C450BD013F80129112A01D0132A07D17A
S1134030A2F111035A425A4184F834202063C5E79F
S1134040994282BF236903F1FF335B18E8E700BF9D
S1134050907F0000F0B587B00C4606461546002157
S1134060382220461F4603F0CAFA95E803000023CD
S11340702A692376EB6884E80300C4E904232A7DD3
S1134080E36084F82C20AA7D2363012384F8343070
S113409084F835300C9B84F82D2023620D9BE76156
S11340A063620E9BA3622B7A84F83630204B346013
S11340B07360204BB360204B3361204B7361204B02
S11340C0F360FDF781FB30B11E4B984203D01024FE
S11340D0204607B0F0BD002104F10800FDF7FCFA0A
S11340E00028F4D10127184B0494CDE90203236975
S11340F0009701936368E2682168207A02F00CFF5C
S113410004460028E3D195F90830002B0BDB03F0BB
S11341101F025B099B0003F16043974003F5614371
S1134120C3F880711F603046FFF764FDD0E700BF1D
S1134130953F0000093D0000F7700000FD7000008D
S1134140FD3E0000038000F0953C00002DE9F041A5
S113415086B01C46554B01270293554B0C9D019389
S11341600023904600930A46CDE903772946514B34
S1134170FFF770FF0646002840F090802368394618
S1134180AB6363683A20EB63637A85F84130237A42
S113419085F84030E37A85F84330A37A85F84230D5
S11341A0637B85F84530237B85F84430E37B85F8D1
S11341B04730A37B85F84630FDF78CFE3B4604224E
S11341C0617A207AFEF7F4FD3B460222E17AA07A76
S11341D0FEF7EEFD39466068FDF77CFE88F8006066
S11341E041462068FFF7E8FB1422637C5B0103F17E
S11341F0A04303F57033C3F81C26617A227A42EA9D
S11342000142C3F83426E17AA27A42EA0142C3F8B1
S11342102C2685F8486098F81930032B44D8DFE839
S113422003F03441021C022385F8483000230422A1
S1134230E17BA07BFEF7BCFD022741F21C61627C9E
S11342401D4B03EB42104750E07BA17BB13241EAA6
S1134250004103EB4213996017E0012785F84830C9
S113426002220023617B207BFEF7A2FD637B227B7D
S1134270617C42EA0342114B49015A5004222368EB
S113428003F58053DA65002FD0D1AA6B0521D36CD6
S1134290206843F00403D364FFF734FB304606B0D0
S11342A0BDE8F0810027D9E72326F7E70F71000066
S11342B0037100008771000000C0035024D603502E
S11342C030B50E4C416123688BB9206083600DE0EA
S11342D0891A9A681D4641616AB113465A698A422D
S11342E0F6D935B1A860521A83605A6130BD0025F1
S11342F0F4E72060F7E798608260F7E7081600208B
S113430038B502F080FF0025084B094C1A68236871
S1134310C31A2AB123B15169994203D3C91A51610D
S1134320206038BD55615B1A9268F2E708160020D8
S11343300416002038B5134D2B685B6993B1124AFB
S1134340022014681C4402F065FF204600F062F964
S113435000230E492A680B70D088800709D50123F1
S11343600B7038BD022002F055FF022000F09CF9CA
S1134370EEE79268002AF4D050690344012BEBD98C
S1134380EFE700BF0816002004160020A017002045
S113439000220C490B687BB183420AD183687AB14D
S11343A0936083681BB15A6941690A445A610020C9
S11343B070471A469B68EEE70028EFD0022070474A
S11343C00B60EEE70816002070B502F0EEFD144E07
S11343D005463478FCB9134B1C60134B1C60134B1B
S11343E01C8000F0D3F8012002F014FF02F01EFF3D
S11343F00F4B0246186020B9284602F0DCFD23204A
S113440070BD234640F2E7310A4800F007FD0A4B2D
S1134410186001233370284602F0CDFD0020EFE739
S1134420A117002008160020041600207817002089
S11344300C16002018FCFFFF001600202DE9F047A1
S1134440C20704460BD54D4A138801339BB213802F
S1134450FFF756FF4A4B1B680BB1FFF76BFFA3072F
S113446040F18A8002F0A1FD4FF0000905464E4656
S1134470FFF746FFC846424F3C680CB163698BB1F5
S11344800022404B012E1A7003D1B9F1020F08BF6C
S11344901E70002C6CD0FFF74DFF2846BDE8F04796
S11344A002F089BD23465A693AB91A7921799142B1
S11344B088BF1C469B68002BF5D1284602F07BFD83
S11344C02569DDB102F09FFEA269A0EB02094FEA63
S11344D0E9734D4578EB030311DA23691344A361AF
S11344E0E368B4F80690013613B120462168984772
S11344F002F05BFD0546FFF703FFBDE7A94602F0A6
S113450054FD82462046FFF743FF504602F053FD18
S11345102369002BE4D0B5EB09054FEAE97363EB9B
S11345204303002B04DA4FF4A461174802F066FC3D
S1134530A38B33B1E28B13449BB2B3F57A7F0FD2D2
S1134540E38302F032FD814629462046FFF7B8FE98
S1134550A369226948461344A36102F02CFDBFE716
S1134560A3F57A73E383A369013D013BA361E8E703
S1134570022000F081F890E7BDE8F087781700206A
S1134580081600209F170020D67F00001FB50024C6
S11345901D4B012118689A880290D3F806009B7A73
S11345A000903E20ADF80C208DF80430FDF792FC0D
S11345B08DF8084002F025FE8DF80C0002A8FFF7E4
S11345C0FBF8694601208DF80040FFF7A7F84FF08B
S11345D0B04240F2FF31936923F47F7323F0030365
S11345E093610A4B5961936A13F00803FBD1136278
S11345F00120FFF7B7F84FF48052054BC3F8802130
S11346001A6004B010BD00BF1B80000000200058D9
S113461000E100E010B5044602F0C0FC4FF0B042E7
S1134620936A1907FCD4136A116C5269520604D4B4
S1134630CA1A032A01D88B420ED1E21A022A98BF61
S1134640DC1CB4F1FF3F38BF013C4FF0B0431C64A5
S11346509A6942F040029A6102F0A4FC054A137878
S11346603BB14FF0B041CB6B43F00203CB6300236B
S1134670137010BDF0110020820700F001030AD569
S11346800121084A43F0400311704FF0B041CA6B56
S113469022F00302CA634FF0B0418A6922EA03039D
S11346A08B617047F0110020830742BF4022014B09
S11346B05A6170470010005810B502F076FC4FF0B4
S11346C0B04304465B695A06074A03F0010003F04D
S11346D0510348BF40F002005361FFF7AFFE20468C
S11346E0BDE8104002F067BC0020005810B5044635
S11346F0FCF710FE4FF47A729042B0FBF2F105D24F
S11347003621BDE810400C4802F078BB0B4BB3FBDC
S1134710F1F30B49884201D93C21F2E702FB04F092
S1134720B0FBF3F0022806D9BDE810400323B0FB28
S1134730F3F0FBF705BD10BD2680000040420F00DA
S1134740E7CD9A3BF0B593B0654E08AD04460FCE65
S11347500FC50FCE0FC596E803000027012685E894
S11347600300032522685F4BCDE903779A42CDE924
S1134770057707978DF80E50029636D131462A20D8
S1134780FDF7A8FB31463A20FDF7A4FB02214FF4C4
S1134790B060FDF765FF3A4653492068FEF752FCC6
S11347A094ED037ADFED517A67EE277A8DF81900DC
S11347B017EE900A8DF8177000F0B8FA41EC100B60
S11347C0FCF7EEFA51EC100B00F008FB0A235843F7
S11347D0637A73B9B0F5847F17D040F6E443984206
S11347E011D040F2E243984231D94FF0FF3013B078
S11347F0F0BD012BF9D140F2BA43984229D040F6DA
S1134800E4439842F1D1294600E00421237A8DF84B
S11348102310013B032B0B90E7D8022200238DF8D1
S113482022209DF819203249009220681A468DF8FA
S11348302130FEF739FC62680A9002F00F03C2F3DC
S11348400712032AD1D8DFE802F00623354831469F
S1134850DCE73946DAE7803B8DF80930012322682A
S11348608DF808301F4B9A42BFD1224AD2F8203328
S113487043F00103C2F82033206808AA05A9FEF713
S11348804DFC206802AA03A9FEF704FB0020AEE752
S1134890703B8DF80930012322688DF80830114BE4
S11348A09A42A2D1134AD2F8243343F00103C2F846
S11348B02433E1E7603BDBB28DF809300123226841
S11348C08DF80830074B9A428FD10A4AD2F8283320
S11348D043F00103C2F82833CEE7503BEBE700BFB7
S11348E0648000000040005A002D31010000C842DD
S11348F08096980000C003504FF0FF3303600423F8
S11349008380014B83607047000080BF10B504466C
S11349100C22043002F08CFE2046FFF713FF28B966
S1134920044B1A68944201D01C6010BD4FF0FF3054
S1134930FBE700BF10160020034B01721A68904277
S113494018BF1860002070471016002010B50446E8
S1134950074B80ED030A1A68904218BF186000687C
S1134960FEF7DAFA2046BDE81040FFF7EBBE00BFC1
S11349701016002038B580B1094C0A4D2860204635
S113498000F012F8102321462846236002F070FC40
S11349900028D4BF0020012038BD2120FCE700BF3F
S11349A014160020201600204FF0FF330360032369
S11349B00371014B836070473333534038B5104D56
S11349C0104C2968002304222078FEF7F1F944F200
S11349D05060FFF78BFE2968012304222078FEF73C
S11349E0E7F92820FFF782FE2078002329680122B6
S11349F0FEF7DEF9BDE838405E20FFF777BE00BF62
S1134A0014100020A217002038B50F4B1C780F4B50
S1134A10032C1D6805D80E4B33F81430EB40DB072C
S1134A2004D440F2CF310B4802F0E8F914223023C9
S1134A3013FB042303F1A04303F570331868E84023
S1134A4000F0010038BD00BFA217002014100020A0
S1134A508C8000009C7C00000148FFF78BBF00BFE6
S1134A600040005A81F0004102E000BF83F000439F
S1134A7030B54FEA41044FEA430594EA050F08BFF5
S1134A8090EA020F1FBF54EA000C55EA020C7FEAB9
S1134A90645C7FEA655C00F0E2804FEA5454D4EB36
S1134AA05555B8BF6D420CDD2C4480EA020281EA00
S1134AB0030382EA000083EA010180EA020281EA38
S1134AC00303362D88BF30BD11F0004F4FEA01318A
S1134AD04FF4801C4CEA113102D0404261EB410199
S1134AE013F0004F4FEA03334CEA133302D052421F
S1134AF063EB430394EA050F00F0A780A4F10104DB
S1134B00D5F1200E0DDB02FA0EFC22FA05F2801814
S1134B1041F1000103FA0EF2801843FA05F35941FA
S1134B200EE0A5F120050EF1200E012A03FA0EFC79
S1134B3028BF4CF0020C43FA05F3C01851EBE371A3
S1134B4001F0004507D54FF0000EDCF1000C7EEBC0
S1134B5000006EEB0101B1F5801F1BD3B1F5001FFE
S1134B600CD349085FEA30004FEA3C0C04F101041D
S1134B704FEA445212F5800F80F09A80BCF1004F46
S1134B8008BF5FEA500C50F1000041EB045141EAC8
S1134B90050130BD5FEA4C0C404141EB0101013C91
S1134BA028BFB1F5801FE9D291F0000F04BF014680
S1134BB00020B1FA81F308BF2033A3F10B03B3F152
S1134BC020020CDA0C3208DD02F1140CC2F10C02E2
S1134BD001FA0CF021FA02F10CE002F11402D8BF40
S1134BE0C2F1200C01FA02F120FA0CFCDCBF41EA0C
S1134BF00C019040E41AA2BF01EB0451294330BDDB
S1134C006FEA04041F3C1CDA0C340EDC04F11404B7
S1134C10C4F1200220FA04F001FA02F340EA03008E
S1134C2021FA04F345EA030130BDC4F10C04C4F1D4
S1134C30200220FA02F001FA04F340EA03002946B4
S1134C4030BD21FA04F0294630BD94F0000F83F4FE
S1134C50801306BF81F480110134013D4EE77FEAE1
S1134C60645C18BF7FEA655C29D094EA050F08BF2D
S1134C7090EA020F05D054EA000C04BF194610460E
S1134C8030BD91EA030F1EBF0021002030BD5FEA52
S1134C90545C05D14000494128BF41F0004130BD7A
S1134CA014F580043CBF01F5801130BD01F00045CE
S1134CB045F0FE4141F470014FF0000030BD7FEA41
S1134CC0645C1ABF194610467FEA655C1CBF0B463C
S1134CD0024650EA013406BF52EA033591EA030F53
S1134CE041F4002130BD00BF90F0000F04BF00214B
S1134CF0704730B54FF4806404F132044FF000057E
S1134D004FF0000150E700BF90F0000F04BF0021F6
S1134D10704730B54FF4806404F1320410F000455C
S1134D2048BF40424FF000013EE700BF42004FEA57
S1134D30E2014FEA31014FEA02701FBF12F07F43D4
S1134D4093F07F4F81F06051704732F07F4208BF8B
S1134D50704793F07F4F04BF41F40021704730B592
S1134D604FF4607401F0004521F000411CE700BFDE
S1134D7050EA010208BF704730B54FF000050AE061
S1134D8050EA010208BF704730B511F0004502D562
S1134D90404261EB41014FF4806404F132045FEA64
S1134DA0915C3FF4D8AE4FF003025FEADC0C18BF0D
S1134DB003325FEADC0C18BF033202EBDC02C2F1FF
S1134DC0200300FA03FC20FA02F001FA03FE40EA91
S1134DD00E0021FA02F11444BDE600BF4A0011D2CC
S1134DE012F5001211D20DD56FF47873B3EB625241
S1134DF00ED44FEAC12343F0004343EA505323FA4D
S1134E0002F070474FF00000704750EA013002D1C1
S1134E104FF0FF3070474FF00000704753B94AB964
S1134E20002908BF00281CBF4FF0FF314FF0FF30AE
S1134E3000F082B9ADF1080C6DE904CE00F006F87B
S1134E40DDF804E0DDE9022304B070472DE9F04FFA
S1134E50099D0C46002B4DD18A420F468446964646
S1134E60B2FA82F360D94BB102FA03FEC3F1200215
S1134E709F4000FA03FC20FA02F217434FEA1E4651
S1134E801FFA8EF44FEA1C42B7FBF6F106FB1177CA
S1134E9001FB04F042EA0742904208D91EEB0202E9
S1134EA001F1FF3702D2904200F231813946121AE1
S1134EB01FFA8CFCB2FBF6F006FB102200FB04F494
S1134EC04CEA024C644508D91EEB0C0C00F1FF328D
S1134ED002D2644500F21E81104640EA0140ACEB68
S1134EE0040C002125B12CFA03F30022C5E9003299
S1134EF0BDE8F08F8B4205D90DB1C5E90001002151
S1134F000846F5E7B3FA83F100294DD1A342C0F076
S1134F10F380904280F0F080064623460846002D38
S1134F20E6D0C5E90063E3E7002B40F0A3808A1ACA
S1134F304FEA1E471FFA8EF60121B2FBF7F407FB76
S1134F4014204FEA1C4242EA004206FB04F090425D
S1134F500FD91EEB020204F1FF382CBF4FF00109F8
S1134F604FF00009904203D9B9F1000F00F0CC8052
S1134F704446121A1FFA8CFCB2FBF7F007FB10220E
S1134F8000FB06F64CEA024C664508D91EEB0C0CF5
S1134F9000F1FF3202D2664500F2B3801046ACEB5A
S1134FA0060C40EA04409DE7C1F120068B4004FA58
S1134FB001FE22FA06F720FA06FCF4408A401F4359
S1134FC04EEA0C0300FA01FE4FEA17484FEA134970
S1134FD01FFA87FCB4FBF8F008FB104449EA0444C8
S1134FE000FB0CF9A1450ED93C1900F1FF3A2CBF86
S1134FF04FF0010B4FF0000BA14503D9BBF1000F9B
S113500000F08B805046A4EB09041FFA83F9B4FB2B
S1135010F8F308FB134403FB0CFC49EA0444A445DD
S113502006D93C1903F1FF3801D2A4457BD8434685
S113503043EA0040A4EB0C04A0FB02984445CC4690
S1135040434602D306D1CE4504D20138B9EB020C53
S113505068EB0703002D6CD0BEEB0C0264EB030479
S113506022FA01F304FA06F6CC4000211E43C5E9F6
S113507000643DE702FA03FEC3F1200104FA03F2DF
S113508000FA03FCCC404FEA1E4720FA01F11FFA54
S11350908EF6B4FBF7F00A4307FB1044110C41EA07
S11350A0044100FB06F48C420ED91EEB010100F111
S11350B0FF382CBF4FF001094FF000098C4202D990
S11350C0B9F1000F2CD04046091B92B2B1FBF7F4A2
S11350D007FB141142EA014204FB06F1914207D98D
S11350E01EEB020204F1FF3801D291421ED844465D
S11350F0521A44EA004120E7861A64EB03030120B4
S11351000DE7F44402384AE7023C724431E70239BD
S11351107244CCE6F4440238DFE602383C4472E7D9
S113512002387144D0E7023B3C4481E7023C7244BC
S1135130DEE72946DCE600BF704700BF08B5064B32
S1135140044613B10021AFF30080044B1B6803B184
S11351509847204601F0B2FF0000000068170020C5
S11351602DE9F04F8DB00C4616461F46DDF85880E9
S1135170054600F0B7FC03681846049302F065FA8C
S1135180002305900A93D8F8003094F818A0073348
S1135190D4F800B023F0070303F10802C8F8002094
S11351A04FF0FF32D3E9008929F00043CDF818808D
S11351B007939C4BDDE90601C4E9128901F09CFDCB
S11351C070BB4FF0FF32974BDDE9060101F076FD2D
S11351D030BB002200234046494601F065FD10B172
S11351E02D2384F84330904A904BBAF1470F94BF73
S11351F09046984603234FF0000923612BF00403E3
S1135200236033460BAA21462846009702F024F96E
S1135210013040F096804FF0FF300DB0BDE8F08FC4
S113522042464B464046494601F066FD40B14B4676
S11352307F4A002BBCBF2D2384F843307D4BD4E739
S113524063685A1C26D1062363604BF480620023F2
S11352502846226003930AABCDE901A309AB49ECCC
S1135260108B00930DF12303616802F054F8BAF136
S1135270670F8046099915D1CB1C3BDB63689942C3
S113528038DC0A9B994255DB23682161D80745D550
S11352904B1C42E00AF0DF02472AD6D1002BD4D1BE
S11352A00123D1E7BAF1470F07D1C81C25DB636896
S11352B08B4222DB4FF0670AE3E7BAF1650F1FD890
S11352C00139524604F15000099102F08CF80A9A0F
S11352D081461318012A236102DC2268D20701D512
S11352E0013323619DF82330002B8AD02D2384F8C9
S11352F0433086E74FF0650AE2E74FF0450ADFE7FF
S1135300BAF1660FBDD1002963680BDD216113B9C1
S11353102268D00702D501330B4423614FF0000902
S1135320A165DFE713B92268D20701D50233F4E798
S11353300123F2E70029D4BFC1F102020122134480
S1135340EBE723685A0507D42369424631462846C9
S1135350B84701302BD15EE7BAF1650F40F2DD802A
S113536000220023D4E9120101F094FC002833D078
S11353700123314A31462846B84701303FF44BAF48
S1135380DDE90938434502DB2368D8070FD53146E8
S11353902846DDE90423B84701303FF43CAF4FF021
S11353A0000908F1FF3804F11A0AC84509DC23682A
S11353B09B0700F10381E0680B9B9842B8BF184635
S11353C02BE70123524631462846B84701303FF4C3
S11353D022AF09F10109E8E7099B002B39DC01231D
S11353E0154A31462846B84701303FF414AFDDE989
S11353F0093959EA030302D12368D907D7D53146BD
S11354002846DDE90423B84701303FF404AF4FF0E8
S1135410000A04F11A0B099B5B4253450EDC4B4610
S113542093E700BFFFFFEF7F9581000099810000A3
S11354309D810000A1810000A581000001235A463E
S113544031462846B84701303FF4E5AE0AF1010A77
S1135450E1E7A36DDDF828A05345A8BF5346002B10
S1135460994636DC4FF0000B29EAE97904F11A0277
S1135470A36D0693A3EB09035B4531DC099B9A45B5
S11354803ADC2368DA0737D4099BAAEB0309069BA5
S1135490AAEB03039945A8BF9946B9F1000F33DC81
S11354A04FF0000829EAE97904F11A0B099BAAEBE9
S11354B00303A3EB090343457FF779AF01235A465E
S11354C031462846B84701303FF4A5AE08F101083B
S11354D0ECE7424631462846B8470130C2D19AE645
S11354E00123314628460692B84701303FF493AE73
S11354F00BF1010B069ABBE7DDE90423314628468C
S1135500B8470130C0D186E6069A4B463146284654
S11355104244B8470130C3D17DE6DDF828A0BAF192
S1135520010F01DCDB0736D501234246314628460C
S1135530B84701303FF46FAE31462846DDE9042315
S1135540B84701303FF467AE002200230AF1FF3A66
S1135550D4E9120101F09EFBC0B9534608F10102DF
S113556031462846B84701300CD154E601235A4647
S113557031462846B84701303FF44DAE08F10108E2
S1135580D045F3DB4B4604F15002DFE64FF0000850
S113559004F11A0BF4E701234246E1E701234A46EA
S11355A031462846B84701303FF435AE08F10108CA
S11355B0E3680B995B1A4345F0DCFCE64FF0000806
S11355C004F11909F4E700BF2DE9FF470F7E914666
S11355D080460C46782F9A460C9E01F1430207D868
S11355E0622F0AD8002F00F0DD80582F00F0C3800E
S11355F004F1420684F842703AE0A7F16303152BE4
S1135600F6D801A151F823F0615600007556000048
S1135610F1550000F1550000F1550000F15500006E
S113562075560000F1550000F1550000F1550000D9
S1135630F15500008B57000003570000435700004A
S1135640F1550000F1550000AD570000F155000080
S113565003570000F1550000F15500004B570000BE
S113566033681A1D1B68326004F1420684F8423024
S11356700123A8E031682368081D30601E0601D5A7
S11356800D6803E05D06FBD5B1F90050002D61689B
S113569078DA2D200029A16084F843002DDA6D42C8
S11356A05D480A231646B5FBF3F103FB1157C75DAA
S11356B006F8017D2F460D46BB42F4D9082B0BD1C9
S11356C02368DF0708D5236961689942DEBF302368
S11356D006F8013C06F1FF36921B22614B4603AAF1
S11356E021464046CDF800A001F0B6FE01306FD14E
S11356F04FF0FF3004B0BDE8F08723F004032360CB
S1135700CDE721683368080653F8045B02D44906E0
S113571048BFADB26F2F33603F4814BF0A2308233C
S1135720002184F843106668002EA660BADB216865
S113573021F004012160002DB4D1002EB2D116460F
S1135740BCE7236843F020032360782733482368A9
S113575084F845701F06316851F8045B02D45F0673
S113576048BFADB23160D90744BF43F02003236082
S11357701DB11023D4E72848E9E7236823F0200368
S11357802360F6E724480A23CDE733682568181D0B
S1135790616930602E061B6801D5196002E0680655
S11357A0FBD5198000231646236197E7336800214F
S11357B01A1D32601E686268304601F02BFF08B182
S11357C0801B606063682361002384F8433085E7AD
S11357D02369324649464046D047013088D0236881
S11357E09B0714D4E068039B9842B8BF184681E72E
S11357F00123324649464046D04701303FF478AF52
S11358000135E36803995B1AAB42F1DCEAE7002552
S113581004F11906F5E700BFA7810000B881000074
S1135820002310B504468360818119464366C28112
S113583008228361C0E90033C0E904335C3001F01D
S1135840DEFE0D4B246263620C4BA3620C4BE362DD
S11358500C4B23630C4B9C4206D003F16802944228
S113586002D0D0339C4205D104F15800BDE8104069
S113587001F0CDBE10BD00BF797500009B7500001E
S1135880D3750000F775000030160020024A034962
S1135890034801F053BE00BF18100020A179000096
S11358A02810002041680C4B994210B5044601D0E1
S11358B002F076F8A168094B994202D0204602F022
S11358C06FF8E168064B994204D02046BDE81040C9
S11358D002F066B810BD00BF3016002098160020F4
S11358E00017002010B50B4B04210B4C0B4A20462B
S11358F01A600022FFF794FF04F1680001220921D5
S1135900FFF78EFF04F1D00002221221BDE81040FF
S1135910FFF786BF68170020301600208D5800005E
S1135920014801F075BE00BFA4170020014801F032
S113593070BE00BFA417002010B50446FFF7F0FFA7
S1135940236A1BB1BDE81040FFF7F0BF044B23628C
S1135950044B1B68002BF5D1FFF7C4FFF2E700BF2F
S1135960A5580000681700202DE9F7431D46574B42
S113597004460E461F68904627B13B6A13B9384661
S1135980FFF7DAFFB8F1020F06D0B8F1010F00F209
S11359909980002DC0F29680636ED90705D4A3893F
S11359A09A0502D4A06D01F033FE2146384601F079
S11359B0F7FF616B41B104F14403994202D03846C8
S11359C000F0FEF8002363630023A3616360A389EE
S11359D01B0603D52169384600F0F2F8A389B8F113
S11359E0020F23F44A6323F00303A38160D001ABC5
S11359F06A462146384601F0FBFFA3891843A0817B
S1135A002DBB009D284600F025F90646002851D1FB
S1135A10DDF80090A9453FD14FF0FF35B4F90C30C3
S1135A2043F00202A2810022A26004F14702226034
S1135A30226101226261626ED60704D4980502D401
S1135A40A06D01F0E6FD284603B0BDE8F083002E0A
S1135A50D8D03B6A13B93846FFF76EFFB8F1010F8F
S1135A60266002BFA38943F00103A381B4F90C307B
S1135A7013F00802C4E904651ED0D90745BF00220B
S1135A806D42A560A26048BFA561626ED20701D4D1
S1135A909B0513D50025D6E7484600F0DBF80646FB
S1135AA00028B9D0A3894D4643F08003A381D0E7F1
S1135AB00025B3E7A946F5E7A260E6E7A06D01F08B
S1135AC0A8FDE7E74FF0FF35BDE700BF2410002035
S1135AD00B46034902460868816800F089BC00BF90
S1135AE024100020004870476411002038B50023BA
S1135AF0054D044608462B6001F0DEFA431C02D132
S1135B002B6803B1236038BD6C17002038B50446F8
S1135B10064D0846114600222A601A4601F0DBFAB7
S1135B20431C02D12B6803B1236038BD6C170020DD
S1135B3038B50446064D0846114600222A601A4626
S1135B4001F0CBFA431C02D12B6803B1236038BDAA
S1135B506C17002038B50446064D0846114600224D
S1135B602A601A46FEF75EF8431C02D12B6803B183
S1135B70236038BD6C17002070B50D4D00260D4C08
S1135B80641BA410A64209D10B4D00260B4C02F055
S1135B9033F8641BA410A64205D170BD55F8043B2C
S1135BA001369847EEE755F8043B01369847F2E78B
S1135BB0F4110020F4110020F4110020F811002049
S1135BC038B50546002941D051F8043C0C1F002B80
S1135BD0B8BFE41800F0E0F81D4A136833B96360F5
S1135BE014602846BDE8384000F0DCB8A34208D968
S1135BF0206821188B4201BF19685B68091821606D
S1135C00EDE71A465B680BB1A342FAD91168501844
S1135C10A0420BD120680144501811608342E0D1A6
S1135C2018685B68084453601060DAE702D90C23F3
S1135C302B60D6E7206821188B4202BF19685B6885
S1135C400918636008BF21605460CAE738BD00BF0B
S1135C5074170020024B0146186800F025B800BFF5
S1135C602410002070B50F4E0C460546316811B95A
S1135C7000F04EFD30602146284600F049FD431CEB
S1135C8003D14FF0FF34204670BDC41C24F003043C
S1135C90A042F8D0211A284600F03AFD0130F2D192
S1135CA0EFE700BF701700202DE9F041CD1C064638
S1135CB025F0030508350C2D38BF0C25002D01DB1C
S1135CC0A94204D90C2333600020BDE8F081314F90
S1135CD000F062F83B681C4644BB29463046FFF797
S1135CE0C1FF431C044650D13C682146002941D1E0
